:100000000C94A4000C9417090C943E090C94CC0099
:100010000C94CC000C94CC000C94CC000C94CC0030
:100020000C94CC000C94CC000C94CC000C94CC0020
:100030000C94CC000C94CC000C94CC000C94CC0010
:100040000C9475090C94CC000C94CC000C94CC004E
:100050000C94CC000C94CC000C94CC000C94CC00F0
:100060000C940A040C94CC0007634236B79BD8A7C3
:100070001A39685618AEBAAB558C1D3CB7CC5763CD
:10008000BD6DEDFD753EF6177231BF000000803F7B
:1000900008000000BE922449123EABAAAA2ABECD97
:1000A000CCCC4C3E00000080BEABAAAAAA3E000009
:1000B0000000BF000000803F000000000008417801
:1000C000D3BB4387D1133D190E3CC3BD4282AD2B38
:1000D0003E68EC8276BED98FE1A93E4C80EFFFBE30
:1000E00001C4FF7F3F000000000000000008000284
:1000F00001000003040700000000000000000102EE
:1001000004081020408001020408102001020408A5
:100110001020040404040404040402020202020283
:10012000030303030303000000002300260029004B
:1001300000000000250028002B0000000000240023
:1001400027002A006503F80511241FBECFEFD8E071
:10015000DEBFCDBF11E0A0E0B1E0ECE0FFE102C006
:1001600005900D92AA34B107D9F722E0AAE4B1E0D4
:1001700001C01D92A933B207E1F711E0C8E4D1E054
:1001800004C02297FE010E94800FC434D107C9F732
:100190000E9466090C94840F0C9400002F923F92E9
:1001A0004F925F926F927F928F929F92AF92BF9287
:1001B000CF92DF92EF92FF920F931F93CF93DF9333
:1001C00000D000D0CDB7DEB70E94BF091B012C01C3
:1001D000A0905C01B0905D01C0905E01D0905F0185
:1001E000E0906001F0906101009162011091630163
:1001F0009B01A20160E070E080E090E00E94550F5A
:10020000A4E60E945E0F09F008F457C099B189B1C5
:100210009071887060915A0170915B0100910201A8
:1002200010910301981711F1882777FD8095982F79
:100230000E94930C9B01AC0160E070E080E291E4CD
:100240000E94AA0D9B01AC01B801882777FD80951B
:10025000982F29833A834B835C830E94930C2981D6
:100260003A814B815C810E94900B21C0882777FDE9
:100270008095982F0E94930C9B01AC0160E070E088
:1002800080E291E40E94AA0D9B01AC01B80188278D
:1002900077FD8095982F29833A834B835C830E9456
:1002A000930C29813A814B815C810E948F0B0E94C3
:1002B000600C709303016093020120925C01309204
:1002C0005D0140925E0150925F01109260011092B8
:1002D000610110926201109263010F900F900F90D4
:1002E0000F90DF91CF911F910F91FF90EF90DF90D2
:1002F000CF90BF90AF909F908F907F906F905F90C6
:100300004F903F902F900895FF920F931F93CF939C
:10031000DF93F82E60E00E942F0B61E08AE00E94DC
:100320002F0B60E08AE00E942F0BCBE0D0E000E0D2
:1003300010E061E08AE00E942F0B88E00E94650BCC
:100340000C2E02C0880F991F0A94E2F7080F191F9C
:1003500060E08AE00E942F0B219758F761E08AE065
:100360000E942F0B88E00E94650BEC0160E08AE0A0
:100370000E942F0B61E08F2D0E942F0BCD2B61F47B
:10038000B80180E090E00E94910C20E030E040E86D
:100390005EE30E94470D04C060E07CE38CE196E4DC
:1003A000DF91CF911F910F91FF90089560E083E05E
:1003B0000E94F60A60E084E00E94F60A60E085E0B0
:1003C0000E94F60A61E085E00E942F0B61E086E062
:1003D0000E94F60A60E088E00E94F60A61E08AE086
:1003E0000E94F60A61E089E00E94F60A61E089E075
:1003F0000E942F0B41E050E06EEC70E081E00E9423
:10040000F70884E691E00E941F0784E691E00E94CD
:10041000250640E060E084E691E00E94860660E107
:1004200071E084E691E00E945F0741E060E084E6CD
:1004300091E00E94860666E171E084E691E00C940A
:100440005F07AF92BF92CF92DF92EF92FF920F932E
:100450001F93CF93DF9385E00E94650B892B41F5B5
:100460000E94BF09DC01CB019C01AD0160E070E09E
:1004700080E090E0A0905201B0905301C0905401F0
:10048000D0905501E0905601F0905701009158012D
:10049000109159010E94550FA4E60E945E0F41F091
:1004A00038F08091000190910101019709F4EBC0AF
:1004B00085E00E94650B909301018093000189E023
:1004C00090E00E9484016B017C0140E065E084E6DD
:1004D00091E00E94860620E030E048EC52E4C7013B
:1004E000B6010E94F40B87FF05C060E284E691E04C
:1004F0000E94610720E030E040E251E4C701B6010C
:100500000E94F40B87FF05C060E284E691E00E9440
:10051000610722E030E0B701A60184E691E00E9485
:10052000F40841E065E084E691E00E94860680914F
:10053000020190910301843691052CF460E284E677
:1005400091E00E94610780910201909103010A9756
:100550002CF460E284E691E00E9461076091020160
:10056000709103014AE050E084E691E00E940108A6
:100570006CE171E084E691E00E945F0720914A01FE
:10058000237030E040E050E060E070E080E090E018
:10059000A1E00E945E0F09F070F467E080915A01BB
:1005A000681B41E084E691E00E94860660E284E6F2
:1005B00091E00E9461076091020170910301882718
:1005C00077FD8095982F0E94930CA70196010E94B9
:1005D0008F0B20E030E040E251E40E94470D6B01B8
:1005E0007C0120E030E0A9010E94F40B87FD0FC0E0
:1005F00020E030E04FE753E4C701B6010E94430D0D
:10060000181644F0C701B6010E94600C05C060E0F6
:1006100070E002C06FEF70E086E00E946E0A68EC46
:1006200070E080E090E00E94EE0920914A01309154
:100630004B0140914C0150914D0160914E017091E0
:100640004F018091500190915101A1E00E94490F0A
:1006500020934A0130934B0140934C0150934D013C
:1006600060934E0170934F0180935001909351011C
:10067000DF91CF911F910F91FF90EF90DF90CF907E
:10068000BF90AF90089580915A0190915B010196BF
:1006900063E070E00E94130F90935B0180935A0116
:1006A0000E94BF09DC01CB0180935201909353015A
:1006B000A0935401B0935501109256011092570126
:1006C0001092580110925901F3CE22E040E167E206
:1006D00084E691E00C94FC051092DD0181E08093AA
:1006E000DB011092DA0161E082E10E942F0B61E0F0
:1006F00083E10E942F0BE9EBF0E080818E7F808305
:1007000080818D7F808388E48093B80085E4809326
:10071000BC0008950F93413208F04AC09091DD016A
:100720009111FCCF92E09093DD010093DB019FEFEC
:10073000909370011092B5014093B401FB0166EBF8
:1007400071E0DB019A2F961B941718F491919D93F9
:10075000F9CF1092DC019091DC01880F892B8093F6
:10076000DC018091DA01813061F41092DA0180912C
:10077000DC018093BB008091BC0083FDF8CF85EC49
:1007800001C085EE8093BC00222321F08091DD0121
:100790008230E1F3809170018F3F61F080917001B0
:1007A000803251F080917001803341F483E007C0C2
:1007B00081E005C080E003C082E001C084E00F91C9
:1007C0000895613298F42091DD01243089F460931A
:1007D0009201FC0184E991E0DC012A2F281B2617F5
:1007E00018F421912D93F9CF80E0089581E00895C8
:1007F00082E0089585ED8093BC008091BC0084FD6B
:10080000FCCF1092DD01089585EC8093BC0010921E
:10081000DD0108951F920F920FB60F9211242F93AE
:100820003F934F935F936F937F938F939F93AF9378
:10083000BF93EF93FF938091B900887F803609F4CE
:100840009EC078F5883209F45DC090F4803109F4D7
:1008500056C038F4882309F4F5C0883009F44FC035
:10086000F5C0883109F44EC0803209F45FC0EEC093
:10087000803409F46AC058F4803309F457C08833CF
:1008800009F0E4C0809370010E940404DFC0803549
:1008900009F44FC0883509F45DC0883409F0D6C02A
:1008A000D3C0883909F4C4C0A8F4883709F467C0F4
:1008B00038F4883609F463C0803709F460C0C6C0D4
:1008C000883809F4B5C0803909F45FC0803809F070
:1008D000BDC05BC0803B09F483C038F4803A09F4A2
:1008E00066C0883A09F47CC0B1C0803C09F4A4C059
:1008F000883C09F4A1C0883B09F487C0A7C0809157
:10090000DC0110C09091B5018091B401981770F589
:10091000E091B50181E08E0F8093B501F0E0EA54DB
:10092000FE4F80818093BB0085EC83C08093700173
:100930008BC0E091B50181E08E0F8093B50180916D
:10094000BB00F0E0EA54FE4F80839091B5018091A6
:10095000B4016BC0E091B50181E08E0F8093B501C9
:100960008091BB00F0E0EA54FE4F80838091DB0170
:1009700081116AC081E08093DA0184EA5EC083E07D
:100980008093DD0110927101CFCF8091710180328F
:1009900008F04EC0E091710181E08E0F80937101EB
:1009A0008091BB00F0E0EE58FE4F8083BDCF0E94E7
:1009B000040480917101803230F4E0917101F0E023
:1009C000EE58FE4F10826091710170E0E091D60107
:1009D000F091D70182E791E009951092710136C03C
:1009E00084E08093DD011092930110929201E091D6
:1009F000D801F091D901099580919201811105C02A
:100A000081E08093920110929401E091930181E042
:100A10008E0F80939301F0E0EC56FE4F808180931F
:100A2000BB009091930180919201981708F47CCFBC
:100A300085E88093BC000AC085EC8093BC001092CE
:100A4000DD0104C0109270010E94FA03FF91EF9142
:100A5000BF91AF919F918F917F916F915F914F91D6
:100A60003F912F910F900FBE0F901F90189580917E
:100A70000E0290E020910F02821B910908952091AF
:100A80000F0280910E02281750F4E22FF0E0E05F91
:100A9000FD4F808190E02F5F20930F0208958FEF2C
:100AA0009FEF0895E0910F0280910E02E81730F455
:100AB000F0E0E05FFD4F808190E008958FEF9FEFC1
:100AC00008950895CF92DF92EF92FF920F931F93B4
:100AD000CF93DF937C01CB018A012091EA0122238D
:100AE00089F0EB016B01C40ED51ECC15DD0569F054
:100AF0006991D701ED91FC910190F081E02DC70142
:100B00000995F3CF642F0E94E103C801DF91CF91D3
:100B10001F910F91FF90EF90DF90CF900895CF93AA
:100B2000DF931F92CDB7DEB769832091EA012223BC
:100B3000D1F02091EB01203240F021E030E0FC01C7
:100B40003383228380E090E015C08091EC01E82F90
:100B5000F0E0E351FE4F998190838F5F8093EC0129
:100B60008093EB0105C061E0CE0101960E94E10394
:100B700081E090E00F90DF91CF910895FC01138206
:100B8000128248EE53E060E070E044835583668350
:100B9000778384E291E091838083089510920F021D
:100BA00010920E021092EC011092EB010C946C0367
:100BB00081E08093EA0160930D021092EC011092A3
:100BC000EB0108950F93062F21E04091EB016DEEAC
:100BD00071E080910D020E948A031092EC01109244
:100BE000EB011092EA010F91089561E00C94E20587
:100BF0008EED91E00C94BE05FC011382128284E319
:100C000091E09183808364834187228713860895CE
:100C10001F93CF93DF93EC01162F6C818EED91E043
:100C20000E94D805E091DE01F091DF016B85612B18
:100C30000190F081E02D8EED91E009958EED91E02F
:100C4000DF91CF911F910C94F50528E0FC012387DB
:100C500060E00C9408061F93CF93DF93EC01162FEE
:100C600064600E94080681E090E00E94280A612FDB
:100C70006B7FCE010E94080682E390E0DF91CF9166
:100C80001F910C94280A1F93CF93DF93EC01162F2A
:100C90000E940806612FCE01DF91CF911F910C9425
:100CA0002B06EF92FF921F93CF93DF931F92CDB746
:100CB000DEB77C01162F607F642B49830E944306B8
:100CC00080E1189FB00111244981642BC7010F9066
:100CD000DF91CF911F91FF90EF900C94430641E07C
:100CE0000E94510681E090E0089540E00C94510686
:100CF00061E00E94750680ED97E00C94280A62E09E
:100D00000E94750680ED97E00C94280ACF93DF933C
:100D1000CDB7DEB728970FB6F894DEBF0FBECDBFB4
:100D200028E0E8E0F1E0DE01119601900D922A95AD
:100D3000E1F7FC012085241710F44FEF420FFE016C
:100D40003196E40FF11DE40FF11D2081260F20687C
:100D5000622F28960FB6F894DEBF0FBECDBFDF918D
:100D6000CF910C947506FC016681262F24602683A2
:100D70006C600C947506CF93DF93EC01423018F051
:100D80008D8188608D834887222329F0413019F4B2
:100D90008D8184608D8362E370E080E090E00E944A
:100DA000EE096B85CE010E94080668EE73E080E0D4
:100DB00090E00E94EE0960E3CE010E94430684E9C0
:100DC00091E10E94280A60E3CE010E94430684E973
:100DD00091E10E94280A60E3CE010E94430686E961
:100DE00090E00E94280A60E2CE010E9443066D81D5
:100DF0006062CE010E94750684E08E83CE010E945F
:100E0000B306CE010E94780682E08F8366E0CE01B1
:100E10000E947506CE01DF91CF910C947F06CF938F
:100E2000DF93EC018EED91E00E94CE051D8220E063
:100E30004A856985CE01DF91CF910C94BB060C9455
:100E40000F07CF92DF92EF92FF920F931F93CF93F2
:100E5000DF937C016A01EB0100E010E00C151D0539
:100E600071F06991D701ED91FC910190F081E02D35
:100E7000C7010995892B19F00F5F1F4FEFCFC801EC
:100E8000DF91CF911F910F91FF90EF90DF90CF9066
:100E900008956115710581F0DB010D900020E9F7DF
:100EA000AD0141505109461B570BDC01ED91FC91FE
:100EB0000280F381E02D099480E090E008950C9485
:100EC0004907DC01ED91FC910190F081E02D09943E
:100ED0008F929F92AF92BF92DF92EF92FF920F9309
:100EE0001F93CF93DF93CDB7DEB7A1970FB6F894DA
:100EF000DEBF0FBECDBF7C01F42FD52ECB0119A2D2
:100F0000223008F42AE08E010F5D1F4F822E912CB3
:100F1000A12CB12C6F2F7D2DA50194010E94270FCC
:100F2000F22FD32ECA01015011096A3014F4E0E304
:100F300001C0E7E3E60FD801EC93232B242B252BEC
:100F400049F7B801C7010E944907A1960FB6F89466
:100F5000DEBF0FBECDBFDF91CF911F910F91FF90EC
:100F6000EF90DF90BF90AF909F908F900895CF92B9
:100F7000DF92EF92FF920F931F93CF93DF93EC01D9
:100F80006A017B012115310579F4E881F98101902D
:100F9000F081E02D642FDF91CF911F910F91FF9091
:100FA000EF90DF90CF9009942A303105E9F477FF74
:100FB0001AC06DE20E9461078C0144275527BA01CF
:100FC0004C195D096E097F092AE0CE010E9468076D
:100FD000800F911FDF91CF911F910F91FF90EF90A4
:100FE000DF90CF9008952AE0B701A601CE01DF91EE
:100FF000CF911F910F91FF90EF90DF90CF900C94C5
:1010000068079A01AB01662757FD6095762F0C940F
:10101000B7074F925F926F927F928F929F92AF929B
:10102000BF92CF92DF92EF92FF920F931F93CF93D5
:10103000DF93EC016A017B01B22E9A01AB01C7017B
:10104000B6010E94F60D882319F06BE371E027C00A
:1010500026013701E89477F82FEF3FEF4FE75FE77E
:10106000C301B2010E94F60D81110DC02FEF3FEFB9
:101070004FE75FE7C301B2010E94F40B18161CF49E
:101080006FE371E00CC02FEF3FEF4FE75FE4C70164
:10109000B6010E94430D1816ACF463E471E0CE0172
:1010A000DF91CF911F910F91FF90EF90DF90CF9044
:1010B000BF90AF909F908F907F906F905F904F9078
:1010C0000C9449072FEF3FEF4FE75FECC701B601E4
:1010D0000E94F40B87FDE1CF20E030E0A901C701B9
:1010E000B6010E94F40B87FF0AC06DE2CE010E9498
:1010F00061078C01F7FAF094F7F8F09402C000E071
:1011000010E0A12C60E070E080E09FE3AB1441F0C0
:1011100020E030E040E251E40E94F80BA394F6CFC7
:101120009B01AC01C701B6010E94900B6B017C01D1
:101130000E94650C2B013C010E94910C9B01AC01AB
:10114000C701B6010E948F0B6B017C012AE0B3013D
:10115000A201CE010E946807080F191FBB2039F0B9
:1011600067E471E0CE010E944907080F191F7B2C2C
:10117000772041F120E030E040E251E4C701B601C0
:101180000E94470D6B017C010E94600C4B01AA2458
:1011900097FCA094BA2C2AE030E0B501A401CE015E
:1011A0000E94B707080F191FC501B4010E94930CD4
:1011B0009B01AC01C701B6010E948F0B6B017C0142
:1011C0007A94D6CFC801DF91CF911F910F91FF90F4
:1011D000EF90DF90CF90BF90AF909F908F907F90D7
:1011E0006F905F904F9008950C9409080895823095
:1011F000E8F4E82FF0E0EE0FFF1FEC5FFE4F718385
:101200006083813041F0809169008C7F842B8093D2
:101210006900E89A089580916900440F551F440FB2
:10122000551F837F842B80936900E99A08951F924C
:101230000F920FB60F9211242F933F934F935F930A
:101240006F937F938F939F93AF93BF93EF93FF938E
:10125000E0910401F09105010995FF91EF91BF9193
:10126000AF919F918F917F916F915F914F913F913E
:101270002F910F900FBE0F901F9018951F920F92F5
:101280000FB60F9211242F933F934F935F936F9359
:101290007F938F939F93AF93BF93EF93FF93E091CF
:1012A0000601F09107010995FF91EF91BF91AF9170
:1012B0009F918F917F916F915F914F913F912F916E
:1012C0000F900FBE0F901F90189508950E94330A3B
:1012D0000E9465090E94D601C0E0D0E00E94210270
:1012E0002097E1F30E940000F9CF1F920F920FB6F2
:1012F0000F9211242F933F938F939F93AF93BF939C
:101300008091310290913202A0913302B091340267
:101310003091300223E0230F2D3720F40196A11DD8
:10132000B11D05C026E8230F0296A11DB11D209313
:1013300030028093310290933202A0933302B09333
:1013400034028091350290913602A0913702B0911B
:1013500038020196A11DB11D80933502909336028B
:10136000A0933702B0933802BF91AF919F918F91B4
:101370003F912F910F900FBE0F901F9018952FB790
:10138000F894609131027091320280913302909111
:1013900034022FBF08953FB7F894809135029091A1
:1013A0003602A0913702B091380226B5A89B05C03D
:1013B0002F3F19F00196A11DB11D3FBF6627782F61
:1013C000892F9A2F620F711D811D911D42E0660FBA
:1013D000771F881F991F4A95D1F708958F929F9282
:1013E000AF92BF92CF92DF92EF92FF926B017C019E
:1013F0000E94CB094B015C01C114D104E104F1044A
:10140000F1F00E948E0B0E94CB09681979098A09B4
:101410009B09683E73408105910570F321E0C21A73
:10142000D108E108F10888EE880E83E0981EA11C1F
:10143000B11CC114D104E104F10429F7DDCFFF9000
:10144000EF90DF90CF90BF90AF909F908F900895D6
:101450008230910538F0880F991F880F991F0597E2
:101460000197F1F70895789484B5826084BD84B5BE
:10147000816084BD85B5826085BD85B5816085BD8F
:10148000EEE6F0E0808181608083E1E8F0E01082A8
:10149000808182608083808181608083E0E8F0E0E9
:1014A000808181608083E1EBF0E0808184608083D3
:1014B000E0EBF0E0808181608083EAE7F0E080810A
:1014C000846080838081826080838081816080836A
:1014D0008081806880831092C10008951F93CF930C
:1014E000DF93182FEB0161E00E94F60A209711F4B8
:1014F00060E004C0CF3FD10539F461E0812FDF9176
:10150000CF911F910C942F0BE12FF0E0E651FF4F8C
:10151000E491E330F9F048F4E130B9F0E230A1F5BC
:1015200084B5806284BDC8BD34C0E730E9F0E830DE
:1015300019F1E43049F58091800080628093800049
:10154000D0938B00C0938A0024C084B5806884BD8A
:10155000C7BD1FC080918000806880938000D093B9
:101560008900C093880015C08091B0008068809386
:10157000B000C093B3000DC08091B0008062809332
:10158000B000C093B40005C0C038D1050CF0B5CF91
:10159000AFCFDF91CF911F910895833081F028F470
:1015A000813099F08230A1F008958730A9F0883019
:1015B000B9F08430D1F4809180008F7D03C0809198
:1015C00080008F7780938000089584B58F7702C064
:1015D00084B58F7D84BD08958091B0008F7703C05E
:1015E0008091B0008F7D8093B0000895CF93DF93FA
:1015F00090E0FC01E250FF4F2491FC01EE5EFE4FB3
:101600008491882349F190E0880F991FFC01E65CE2
:10161000FE4FA591B491805D9E4FFC01C591D49180
:101620009FB7611108C0F8948C91209582238C9308
:10163000888182230AC0623051F4F8948C91322F51
:10164000309583238C938881822B888304C0F894FF
:101650008C91822B8C939FBFDF91CF9108950F9334
:101660001F93CF93DF931F92CDB7DEB7282F30E0C3
:10167000F901E651FF4F8491F901E250FF4F1491B7
:10168000F901EE5EFE4F04910023C9F0882321F09A
:1016900069830E94CD0A6981E02FF0E0EE0FFF1F01
:1016A000E05DFE4FA591B4919FB7F8948C916111C4
:1016B00003C01095812301C0812B8C939FBF0F9095
:1016C000DF91CF911F910F910895CF93DF93282F32
:1016D00030E0F901E651FF4F8491F901E250FF4FEC
:1016E000D491F901EE5EFE4FC491CC2391F08111AB
:1016F0000E94CD0AEC2FF0E0EE0FFF1FEA5DFE4FD7
:10170000A591B4912C912D2381E090E021F480E00B
:1017100002C080E090E0DF91CF9108950895505885
:10172000BB27AA270ED075C166D130F06BD120F04F
:1017300031F49F3F11F41EF45BC10EF4E095E7FB1A
:1017400051C1E92F77D180F3BA1762077307840775
:10175000950718F071F49EF58FC10EF4E0950B2EED
:10176000BA2FA02D0B01B90190010C01CA01A001F3
:101770001124FF27591B99F0593F50F4503E68F14E
:101780001A16F040A22F232F342F4427585FF3CF8F
:10179000469537952795A795F0405395C9F77EF460
:1017A0001F16BA0B620B730B840BBAF09150A1F0A9
:1017B000FF0FBB1F661F771F881FC2F70EC0BA0F2F
:1017C000621F731F841F48F4879577956795B795B7
:1017D000F7959E3F08F0B3CF9395880F08F09927AF
:1017E000EE0F979587950895D9D008F481E0089574
:1017F0000CD00FC107D140F0FED030F021F45F3F94
:1018000019F0F0C0511139C1F3C014D198F39923E4
:10181000C9F35523B1F3951B550BBB27AA276217B4
:101820007307840738F09F5F5F4F220F331F441FF9
:10183000AA1FA9F333D00E2E3AF0E0E830D0915031
:101840005040E695001CCAF729D0FE2F27D0660F1E
:10185000771F881FBB1F261737074807AB07B0E85D
:1018600009F0BB0B802DBF01FF2793585F4F2AF073
:101870009E3F510568F0B6C000C15F3FECF3983E53
:10188000DCF3869577956795B795F7959F5FC9F7D0
:10189000880F911D9695879597F90895E1E0660F59
:1018A000771F881FBB1F621773078407BA0720F0D2
:1018B000621B730B840BBA0BEE1F88F7E09508953B
:1018C00004D06894B111D9C00895BCD088F09F5756
:1018D00090F0B92F9927B751A0F0D1F0660F771F7C
:1018E000881F991F1AF0BA95C9F712C0B13081F05C
:1018F000C3D0B1E00895C0C0672F782F8827B85FA4
:1019000039F0B93FCCF3869577956795B395D9F7BC
:101910003EF490958095709561957F4F8F4F9F4FC6
:101920000895E89409C097FB3EF4909580957095D2
:1019300061957F4F8F4F9F4F9923A9F0F92F96E91B
:10194000BB279395F695879577956795B795F11190
:10195000F8CFFAF4BB0F11F460FF1BC06F5F7F4F2D
:101960008F4F9F4F16C0882311F096E911C077233F
:1019700021F09EE8872F762F05C0662371F096E848
:10198000862F70E060E02AF09A95660F771F881F17
:10199000DAF7880F9695879597F90895990F0008BB
:1019A000550FAA0BE0E8FEEF16161706E807F90731
:1019B000C0F012161306E407F50798F0621B730BCC
:1019C000840B950B39F40A2661F0232B242B252B4D
:1019D00021F408950A2609F4A140A6958FEF811DF0
:1019E000811D089597F99F6780E870E060E0089591
:1019F0009FEF80EC089500240A9416161706180627
:101A00000906089500240A94121613061406050602
:101A10000895092E0394000C11F4882352F0BB0F93
:101A200040F4BF2B11F460FF04C06F5F7F4F8F4FF6
:101A30009F4F089557FD9058440F551F59F05F3F31
:101A400071F04795880F97FB991F61F09F3F79F0E0
:101A500087950895121613061406551FF2CF469562
:101A6000F1DF08C0161617061806991FF1CF8695E4
:101A70007105610508940895E894BB2766277727C8
:101A8000CB0197F908958ADF08F48FEF08950BD002
:101A9000C0CFB1DF28F0B6DF18F0952309F0A2CF50
:101AA000A7CF1124EACFC6DFA0F3959FD1F3950FFE
:101AB00050E0551F629FF001729FBB27F00DB11DD2
:101AC000639FAA27F00DB11DAA1F649F6627B00D62
:101AD000A11D661F829F2227B00DA11D621F739F4B
:101AE000B00DA11D621F839FA00D611D221F749F59
:101AF0003327A00D611D231F849F600D211D822FA0
:101B0000762F6A2F11249F5750408AF0E1F08823E6
:101B10004AF0EE0FFF1FBB1F661F771F881F9150F3
:101B20005040A9F79E3F510570F05CCFA6CF5F3FB4
:101B3000ECF3983EDCF3869577956795B795F79526
:101B4000E7959F5FC1F7FE2B880F911D96958795AE
:101B500097F90895FA01EE0FFF1F30962105310520
:101B600099F16115710561F48038BFE39B0749F174
:101B700068949038810561F08038BFEF9B0741F091
:101B8000992342F5FF3FE1053105210511F1E89464
:101B90000894E795D901AA2329F4AB2FBE2FF85F4B
:101BA000D0F310C0FF5F70F4A695E0F7F73950F05E
:101BB00019F0FF3A38F49F779F930CD00F9007FCF1
:101BC000905808953EF014CF60E070E080E89FE305
:101BD00008954FE79F775F934F933F932F93A2D042
:101BE0002F913F914F915F9152DF09C0D7DE880B53
:101BF000990B089519F40EF0F5CE3ECFF9CE22DF01
:101C0000C8F39638C0F707F80F92E8942BE33AEA46
:101C100048EB5FE74ADF0F920F920F924DB75EB726
:101C20000F92C0D0E8E6F0E016D04F915F91EF91AF
:101C3000FF91E595EE1FFF1F49F0FE57E06844272E
:101C4000EE0F441FFA95E1F74195550B32D00F90F6
:101C500007FE26C00895DF93CF931F930F93FF9243
:101C6000EF92DF927B018C01689405C0DA2EEF01C0
:101C70001ADFFE01E894A591259135914591559182
:101C8000AEF3EF015EDDFE019701A801DA9479F76A
:101C9000DF90EF90FF900F911F91CF91DF9108950A
:101CA0009B01AC0160E070E080E89FE3A1CD9ACE9B
:101CB000ACC0C8DEE8F39923D9F3940F511DBBF3F0
:101CC0009150504094F059F0882332F0660F771FFE
:101CD000881F91505040C1F79E3F510544F7880F2F
:101CE000911D9695879597F908955F3FACF0983EC2
:101CF0009CF0BB27869577956795B79508F4B160FA
:101D00009395C1F7BB0F58F711F460FFE8CF6F5FF1
:101D10007F4F8F4F9F4FE3CFB0CE0EF076C068CE8F
:101D2000689460CE8FDEC8F39923D1F3C6F3DF93B6
:101D3000CF931F930F93FF92C92FDD2788232AF09B
:101D40002197660F771F881FDAF720E030E040E820
:101D50005FEB9FE3883920F0803E30F021968F774B
:101D6000DFDCE0E9F0E003C0DBDCEDEBF0E073DFAB
:101D70008B01BE01EC01FB2E6F5771097595771F22
:101D8000880B990BD0DD28E132E741E35FE38BDE7E
:101D9000AF2D9801AE01FF900F911F91CF91DF9170
:101DA000D0DC37CEFA01DC01AA0FBB1F9B01AC01CE
:101DB000BF5728F422273327442750781FC0B75134
:101DC00088F4AB2F0024469537952795011CA395E1
:101DD000D2F3002069F0220F331F441FB395DAF3CA
:101DE0000DD09DCC61307105A0E88A07B94630F46A
:101DF0009B01AC016627772788279078309621F0E1
:101E0000208331834283538308959F3F31F0915063
:101E100020F4879577956795B795880F911D9695CE
:101E2000879597F9089597FB072E16F4009407D02D
:101E300077FD09D00E946A0F07FC05D03EF490950B
:101E400081959F4F0895709561957F4F0895A1E208
:101E50001A2EAA1BBB1BFD010DC0AA1FBB1FEE1F24
:101E6000FF1FA217B307E407F50720F0A21BB30B6F
:101E7000E40BF50B661F771F881F991F1A9469F7EB
:101E800060957095809590959B01AC01BD01CF0147
:101E900008950024A7FD00942A0F301D401D501DF9
:101EA000601D701D801D901D08952A193B094C0965
:101EB0005D096E097F09800B910B08950024A7FD31
:101EC00000942A173005400550056005700580050F
:101ED00090050895AA1BBB1B51E107C0AA1FBB1F99
:101EE000A617B70710F0A61BB70B881F991F5A95A6
:101EF000A9F780959095BC01CD010895EE0FFF1FC5
:0C1F00000590F491E02D0994F894FFCFB7
:101F0C0001006400F608F6080000400014005400BC
:101F1C004765743A20005365743A20002020200055
:101F2C00000000008F05620537053F05520561056D
:101F3C00000000006F0621070D0A006E616E00693B
:0A1F4C006E66006F7666002E00003E
:00000001FF
